{
  "_format": "hh-sol-artifact-1",
  "contractName": "MyEpicNFT",
  "sourceName": "contracts/MyEpicNFT.sol",
  "abi": [
    {
      "inputs": [],
      "stateMutability": "nonpayable",
      "type": "constructor"
    },
    {
      "anonymous": false,
      "inputs": [
        {
          "indexed": true,
          "internalType": "address",
          "name": "owner",
          "type": "address"
        },
        {
          "indexed": true,
          "internalType": "address",
          "name": "approved",
          "type": "address"
        },
        {
          "indexed": true,
          "internalType": "uint256",
          "name": "tokenId",
          "type": "uint256"
        }
      ],
      "name": "Approval",
      "type": "event"
    },
    {
      "anonymous": false,
      "inputs": [
        {
          "indexed": true,
          "internalType": "address",
          "name": "owner",
          "type": "address"
        },
        {
          "indexed": true,
          "internalType": "address",
          "name": "operator",
          "type": "address"
        },
        {
          "indexed": false,
          "internalType": "bool",
          "name": "approved",
          "type": "bool"
        }
      ],
      "name": "ApprovalForAll",
      "type": "event"
    },
    {
      "anonymous": false,
      "inputs": [
        {
          "indexed": false,
          "internalType": "address",
          "name": "sender",
          "type": "address"
        },
        {
          "indexed": false,
          "internalType": "uint256",
          "name": "tokenId",
          "type": "uint256"
        }
      ],
      "name": "NewEpicNFTMinted",
      "type": "event"
    },
    {
      "anonymous": false,
      "inputs": [
        {
          "indexed": true,
          "internalType": "address",
          "name": "from",
          "type": "address"
        },
        {
          "indexed": true,
          "internalType": "address",
          "name": "to",
          "type": "address"
        },
        {
          "indexed": true,
          "internalType": "uint256",
          "name": "tokenId",
          "type": "uint256"
        }
      ],
      "name": "Transfer",
      "type": "event"
    },
    {
      "inputs": [
        {
          "internalType": "address",
          "name": "to",
          "type": "address"
        },
        {
          "internalType": "uint256",
          "name": "tokenId",
          "type": "uint256"
        }
      ],
      "name": "approve",
      "outputs": [],
      "stateMutability": "nonpayable",
      "type": "function"
    },
    {
      "inputs": [
        {
          "internalType": "address",
          "name": "owner",
          "type": "address"
        }
      ],
      "name": "balanceOf",
      "outputs": [
        {
          "internalType": "uint256",
          "name": "",
          "type": "uint256"
        }
      ],
      "stateMutability": "view",
      "type": "function"
    },
    {
      "inputs": [
        {
          "internalType": "uint256",
          "name": "tokenId",
          "type": "uint256"
        }
      ],
      "name": "getApproved",
      "outputs": [
        {
          "internalType": "address",
          "name": "",
          "type": "address"
        }
      ],
      "stateMutability": "view",
      "type": "function"
    },
    {
      "inputs": [],
      "name": "getMaxNFTsToMint",
      "outputs": [
        {
          "internalType": "uint256",
          "name": "",
          "type": "uint256"
        }
      ],
      "stateMutability": "view",
      "type": "function"
    },
    {
      "inputs": [],
      "name": "getTotalNFTsMintedSoFar",
      "outputs": [
        {
          "internalType": "uint256",
          "name": "",
          "type": "uint256"
        }
      ],
      "stateMutability": "view",
      "type": "function"
    },
    {
      "inputs": [
        {
          "internalType": "address",
          "name": "owner",
          "type": "address"
        },
        {
          "internalType": "address",
          "name": "operator",
          "type": "address"
        }
      ],
      "name": "isApprovedForAll",
      "outputs": [
        {
          "internalType": "bool",
          "name": "",
          "type": "bool"
        }
      ],
      "stateMutability": "view",
      "type": "function"
    },
    {
      "inputs": [],
      "name": "makeAnEpicNFT",
      "outputs": [],
      "stateMutability": "nonpayable",
      "type": "function"
    },
    {
      "inputs": [],
      "name": "name",
      "outputs": [
        {
          "internalType": "string",
          "name": "",
          "type": "string"
        }
      ],
      "stateMutability": "view",
      "type": "function"
    },
    {
      "inputs": [
        {
          "internalType": "uint256",
          "name": "tokenId",
          "type": "uint256"
        }
      ],
      "name": "ownerOf",
      "outputs": [
        {
          "internalType": "address",
          "name": "",
          "type": "address"
        }
      ],
      "stateMutability": "view",
      "type": "function"
    },
    {
      "inputs": [
        {
          "internalType": "uint256",
          "name": "tokenId",
          "type": "uint256"
        }
      ],
      "name": "pickRandomColor",
      "outputs": [
        {
          "internalType": "string",
          "name": "",
          "type": "string"
        }
      ],
      "stateMutability": "view",
      "type": "function"
    },
    {
      "inputs": [
        {
          "internalType": "uint256",
          "name": "tokenId",
          "type": "uint256"
        }
      ],
      "name": "pickRandomFirstWord",
      "outputs": [
        {
          "internalType": "string",
          "name": "",
          "type": "string"
        }
      ],
      "stateMutability": "view",
      "type": "function"
    },
    {
      "inputs": [
        {
          "internalType": "uint256",
          "name": "tokenId",
          "type": "uint256"
        }
      ],
      "name": "pickRandomSecondWord",
      "outputs": [
        {
          "internalType": "string",
          "name": "",
          "type": "string"
        }
      ],
      "stateMutability": "view",
      "type": "function"
    },
    {
      "inputs": [
        {
          "internalType": "uint256",
          "name": "tokenId",
          "type": "uint256"
        }
      ],
      "name": "pickRandomThirdWord",
      "outputs": [
        {
          "internalType": "string",
          "name": "",
          "type": "string"
        }
      ],
      "stateMutability": "view",
      "type": "function"
    },
    {
      "inputs": [
        {
          "internalType": "address",
          "name": "from",
          "type": "address"
        },
        {
          "internalType": "address",
          "name": "to",
          "type": "address"
        },
        {
          "internalType": "uint256",
          "name": "tokenId",
          "type": "uint256"
        }
      ],
      "name": "safeTransferFrom",
      "outputs": [],
      "stateMutability": "nonpayable",
      "type": "function"
    },
    {
      "inputs": [
        {
          "internalType": "address",
          "name": "from",
          "type": "address"
        },
        {
          "internalType": "address",
          "name": "to",
          "type": "address"
        },
        {
          "internalType": "uint256",
          "name": "tokenId",
          "type": "uint256"
        },
        {
          "internalType": "bytes",
          "name": "_data",
          "type": "bytes"
        }
      ],
      "name": "safeTransferFrom",
      "outputs": [],
      "stateMutability": "nonpayable",
      "type": "function"
    },
    {
      "inputs": [
        {
          "internalType": "address",
          "name": "operator",
          "type": "address"
        },
        {
          "internalType": "bool",
          "name": "approved",
          "type": "bool"
        }
      ],
      "name": "setApprovalForAll",
      "outputs": [],
      "stateMutability": "nonpayable",
      "type": "function"
    },
    {
      "inputs": [
        {
          "internalType": "bytes4",
          "name": "interfaceId",
          "type": "bytes4"
        }
      ],
      "name": "supportsInterface",
      "outputs": [
        {
          "internalType": "bool",
          "name": "",
          "type": "bool"
        }
      ],
      "stateMutability": "view",
      "type": "function"
    },
    {
      "inputs": [],
      "name": "symbol",
      "outputs": [
        {
          "internalType": "string",
          "name": "",
          "type": "string"
        }
      ],
      "stateMutability": "view",
      "type": "function"
    },
    {
      "inputs": [
        {
          "internalType": "uint256",
          "name": "tokenId",
          "type": "uint256"
        }
      ],
      "name": "tokenURI",
      "outputs": [
        {
          "internalType": "string",
          "name": "",
          "type": "string"
        }
      ],
      "stateMutability": "view",
      "type": "function"
    },
    {
      "inputs": [
        {
          "internalType": "address",
          "name": "from",
          "type": "address"
        },
        {
          "internalType": "address",
          "name": "to",
          "type": "address"
        },
        {
          "internalType": "uint256",
          "name": "tokenId",
          "type": "uint256"
        }
      ],
      "name": "transferFrom",
      "outputs": [],
      "stateMutability": "nonpayable",
      "type": "function"
    }
  ],
  "bytecode": "0x608060405260405180610100016040528060d3815260200162004afc60d391396009908051906020019062000036929190620008de565b5060405180608001604052806056815260200162004bcf60569139600a908051906020019062000068929190620008de565b506040518060e001604052806040518060400160405280600581526020017f467265736800000000000000000000000000000000000000000000000000000081525081526020016040518060400160405280600981526020017f46616e746173746963000000000000000000000000000000000000000000000081525081526020016040518060400160405280600481526020017f596565740000000000000000000000000000000000000000000000000000000081525081526020016040518060400160405280600581526020017f546173747900000000000000000000000000000000000000000000000000000081525081526020016040518060400160405280600481526020017f457069630000000000000000000000000000000000000000000000000000000081525081526020016040518060400160405280600581526020017f4c6567697400000000000000000000000000000000000000000000000000000081525081526020016040518060400160405280600481526020017f5075726500000000000000000000000000000000000000000000000000000000815250815250600b906007620002219291906200096f565b506040518060c001604052806040518060400160405280600881526020017f5368617761726d6100000000000000000000000000000000000000000000000081525081526020016040518060400160405280600581526020017f446f6e657200000000000000000000000000000000000000000000000000000081525081526020016040518060400160405280600581526020017f50697a7a6100000000000000000000000000000000000000000000000000000081525081526020016040518060400160405280600681526020017f427572676572000000000000000000000000000000000000000000000000000081525081526020016040518060400160405280600581526020017f53616c616400000000000000000000000000000000000000000000000000000081525081526020016040518060400160405280600581526020017f5061737461000000000000000000000000000000000000000000000000000000815250815250600c9060066200039f929190620009d6565b506040518061010001604052806040518060400160405280600581526020017f4c7566667900000000000000000000000000000000000000000000000000000081525081526020016040518060400160405280600a81526020017f476f6e467265656373730000000000000000000000000000000000000000000081525081526020016040518060400160405280600581526020017f4b696c756100000000000000000000000000000000000000000000000000000081525081526020016040518060400160405280600681526020017f4e617275746f000000000000000000000000000000000000000000000000000081525081526020016040518060400160405280600681526020017f536173756b65000000000000000000000000000000000000000000000000000081525081526020016040518060400160405280600681526020017f497461636869000000000000000000000000000000000000000000000000000081525081526020016040518060400160405280600781526020017f4b616b617368690000000000000000000000000000000000000000000000000081525081526020016040518060400160405280600681526020017f53616b7572610000000000000000000000000000000000000000000000000000815250815250600d9060086200059492919062000a3d565b506040518060c001604052806040518060400160405280600381526020017f726564000000000000000000000000000000000000000000000000000000000081525081526020016040518060400160405280600781526020017f233038433241380000000000000000000000000000000000000000000000000081525081526020016040518060400160405280600581526020017f626c61636b00000000000000000000000000000000000000000000000000000081525081526020016040518060400160405280600681526020017f79656c6c6f77000000000000000000000000000000000000000000000000000081525081526020016040518060400160405280600481526020017f626c75650000000000000000000000000000000000000000000000000000000081525081526020016040518060400160405280600581526020017f677265656e000000000000000000000000000000000000000000000000000000815250815250600e90600662000712929190620009d6565b503480156200072057600080fd5b506040518060400160405280600981526020017f5371756172654e465400000000000000000000000000000000000000000000008152506040518060400160405280600681526020017f53515541524500000000000000000000000000000000000000000000000000008152508160009080519060200190620007a5929190620008de565b508060019080519060200190620007be929190620008de565b5050506200080c6040518060400160405280601e81526020017f54686973206973206d79204e465420636f6e74726163742e20576f61682100008152506200081260201b620013b01760201c565b62000c5e565b620008b28160405160240162000829919062000b72565b6040516020818303038152906040527f41304fac000000000000000000000000000000000000000000000000000000007bffffffffffffffffffffffffffffffffffffffffffffffffffffffff19166020820180517bffffffffffffffffffffffffffffffffffffffffffffffffffffffff8381831617835250505050620008b560201b60201c565b50565b60008151905060006a636f6e736f6c652e6c6f679050602083016000808483855afa5050505050565b828054620008ec9062000be8565b90600052602060002090601f0160209004810192826200091057600085556200095c565b82601f106200092b57805160ff19168380011785556200095c565b828001600101855582156200095c579182015b828111156200095b5782518255916020019190600101906200093e565b5b5090506200096b919062000aa4565b5090565b828054828255906000526020600020908101928215620009c3579160200282015b82811115620009c2578251829080519060200190620009b1929190620008de565b509160200191906001019062000990565b5b509050620009d2919062000ac3565b5090565b82805482825590600052602060002090810192821562000a2a579160200282015b8281111562000a2957825182908051906020019062000a18929190620008de565b5091602001919060010190620009f7565b5b50905062000a39919062000ac3565b5090565b82805482825590600052602060002090810192821562000a91579160200282015b8281111562000a9057825182908051906020019062000a7f929190620008de565b509160200191906001019062000a5e565b5b50905062000aa0919062000ac3565b5090565b5b8082111562000abf57600081600090555060010162000aa5565b5090565b5b8082111562000ae7576000818162000add919062000aeb565b5060010162000ac4565b5090565b50805462000af99062000be8565b6000825580601f1062000b0d575062000b2e565b601f01602090049060005260206000209081019062000b2d919062000aa4565b5b50565b600062000b3e8262000b96565b62000b4a818562000ba1565b935062000b5c81856020860162000bb2565b62000b678162000c4d565b840191505092915050565b6000602082019050818103600083015262000b8e818462000b31565b905092915050565b600081519050919050565b600082825260208201905092915050565b60005b8381101562000bd257808201518184015260208101905062000bb5565b8381111562000be2576000848401525b50505050565b6000600282049050600182168062000c0157607f821691505b6020821081141562000c185762000c1762000c1e565b5b50919050565b7f4e487b7100000000000000000000000000000000000000000000000000000000600052602260045260246000fd5b6000601f19601f8301169050919050565b613e8e8062000c6e6000396000f3fe608060405234801561001057600080fd5b506004361061012c5760003560e01c80636352211e116100ad578063b88d4fde11610071578063b88d4fde14610369578063c575757a14610385578063c87b56dd146103b5578063de9d132f146103e5578063e985e9c5146103ef5761012c565b80636352211e1461029f57806370a08231146102cf57806395d89b41146102ff578063a22cb4651461031d578063b187301f146103395761012c565b806323b872dd116100f457806323b872dd146101e95780632de38d68146102055780632fddded91461023557806342842e0e14610253578063514dc8c61461026f5761012c565b806301ffc9a714610131578063060475901461016157806306fdde031461017f578063081812fc1461019d578063095ea7b3146101cd575b600080fd5b61014b60048036038101906101469190612878565b61041f565b6040516101589190613004565b60405180910390f35b610169610501565b60405161017691906132cf565b60405180910390f35b61018761054c565b604051610194919061301f565b60405180910390f35b6101b760048036038101906101b291906128ca565b6105de565b6040516101c49190612f74565b60405180910390f35b6101e760048036038101906101e2919061283c565b610663565b005b61020360048036038101906101fe9190612736565b61077b565b005b61021f600480360381019061021a91906128ca565b6107db565b60405161022c919061301f565b60405180910390f35b61023d6108f9565b60405161024a91906132cf565b60405180910390f35b61026d60048036038101906102689190612736565b610942565b005b610289600480360381019061028491906128ca565b610962565b604051610296919061301f565b60405180910390f35b6102b960048036038101906102b491906128ca565b610a80565b6040516102c69190612f74565b60405180910390f35b6102e960048036038101906102e491906126d1565b610b32565b6040516102f691906132cf565b60405180910390f35b610307610bea565b604051610314919061301f565b60405180910390f35b61033760048036038101906103329190612800565b610c7c565b005b610353600480360381019061034e91906128ca565b610c92565b604051610360919061301f565b60405180910390f35b610383600480360381019061037e9190612785565b610db0565b005b61039f600480360381019061039a91906128ca565b610e12565b6040516103ac919061301f565b60405180910390f35b6103cf60048036038101906103ca91906128ca565b610f30565b6040516103dc919061301f565b60405180910390f35b6103ed611082565b005b610409600480360381019061040491906126fa565b61131c565b6040516104169190613004565b60405180910390f35b60007f80ac58cd000000000000000000000000000000000000000000000000000000007bffffffffffffffffffffffffffffffffffffffffffffffffffffffff1916827bffffffffffffffffffffffffffffffffffffffffffffffffffffffff191614806104ea57507f5b5e139f000000000000000000000000000000000000000000000000000000007bffffffffffffffffffffffffffffffffffffffffffffffffffffffff1916827bffffffffffffffffffffffffffffffffffffffffffffffffffffffff1916145b806104fa57506104f982611449565b5b9050919050565b60006105446040518060400160405280600f81526020017f4d696e746564202564204e4654732100000000000000000000000000000000008152506007546114b3565b600754905090565b60606000805461055b90613563565b80601f016020809104026020016040519081016040528092919081815260200182805461058790613563565b80156105d45780601f106105a9576101008083540402835291602001916105d4565b820191906000526020600020905b8154815290600101906020018083116105b757829003601f168201915b5050505050905090565b60006105e98261154f565b610628576040517f08c379a000000000000000000000000000000000000000000000000000000000815260040161061f9061324f565b60405180910390fd5b6004600083815260200190815260200160002060009054906101000a900473ffffffffffffffffffffffffffffffffffffffff169050919050565b600061066e82610a80565b90508073ffffffffffffffffffffffffffffffffffffffff168373ffffffffffffffffffffffffffffffffffffffff1614156106df576040517f08c379a00000000000000000000000000000000000000000000000000000000081526004016106d69061328f565b60405180910390fd5b8073ffffffffffffffffffffffffffffffffffffffff166106fe6115bb565b73ffffffffffffffffffffffffffffffffffffffff16148061072d575061072c816107276115bb565b61131c565b5b61076c576040517f08c379a00000000000000000000000000000000000000000000000000000000081526004016107639061318f565b60405180910390fd5b61077683836115c3565b505050565b61078c6107866115bb565b8261167c565b6107cb576040517f08c379a00000000000000000000000000000000000000000000000000000000081526004016107c2906132af565b60405180910390fd5b6107d683838361175a565b505050565b6060600061080f6107eb846119c1565b6040516020016107fb9190612f0e565b604051602081830303815290604052611b6e565b9050600b8054905081610822919061360f565b9050600b818154811061085e577f4e487b7100000000000000000000000000000000000000000000000000000000600052603260045260246000fd5b90600052602060002001805461087390613563565b80601f016020809104026020016040519081016040528092919081815260200182805461089f90613563565b80156108ec5780601f106108c1576101008083540402835291602001916108ec565b820191906000526020600020905b8154815290600101906020018083116108cf57829003601f168201915b5050505050915050919050565b600061093b6040518060400160405280601681526020017f4d6178206e756d626572206f66204e4654733a2025640000000000000000000081525060146114b3565b6014905090565b61095d83838360405180602001604052806000815250610db0565b505050565b60606000610996610972846119c1565b6040516020016109829190612f52565b604051602081830303815290604052611b6e565b9050600e80549050816109a9919061360f565b9050600e81815481106109e5577f4e487b7100000000000000000000000000000000000000000000000000000000600052603260045260246000fd5b9060005260206000200180546109fa90613563565b80601f0160208091040260200160405190810160405280929190818152602001828054610a2690613563565b8015610a735780601f10610a4857610100808354040283529160200191610a73565b820191906000526020600020905b815481529060010190602001808311610a5657829003601f168201915b5050505050915050919050565b6000806002600084815260200190815260200160002060009054906101000a900473ffffffffffffffffffffffffffffffffffffffff169050600073ffffffffffffffffffffffffffffffffffffffff168173ffffffffffffffffffffffffffffffffffffffff161415610b29576040517f08c379a0000000000000000000000000000000000000000000000000000000008152600401610b20906131cf565b60405180910390fd5b80915050919050565b60008073ffffffffffffffffffffffffffffffffffffffff168273ffffffffffffffffffffffffffffffffffffffff161415610ba3576040517f08c379a0000000000000000000000000000000000000000000000000000000008152600401610b9a906131af565b60405180910390fd5b600360008373ffffffffffffffffffffffffffffffffffffffff1673ffffffffffffffffffffffffffffffffffffffff168152602001908152602001600020549050919050565b606060018054610bf990613563565b80601f0160208091040260200160405190810160405280929190818152602001828054610c2590613563565b8015610c725780601f10610c4757610100808354040283529160200191610c72565b820191906000526020600020905b815481529060010190602001808311610c5557829003601f168201915b5050505050905090565b610c8e610c876115bb565b8383611ba1565b5050565b60606000610cc6610ca2846119c1565b604051602001610cb29190612ea7565b604051602081830303815290604052611b6e565b9050600c8054905081610cd9919061360f565b9050600c8181548110610d15577f4e487b7100000000000000000000000000000000000000000000000000000000600052603260045260246000fd5b906000526020600020018054610d2a90613563565b80601f0160208091040260200160405190810160405280929190818152602001828054610d5690613563565b8015610da35780601f10610d7857610100808354040283529160200191610da3565b820191906000526020600020905b815481529060010190602001808311610d8657829003601f168201915b5050505050915050919050565b610dc1610dbb6115bb565b8361167c565b610e00576040517f08c379a0000000000000000000000000000000000000000000000000000000008152600401610df7906132af565b60405180910390fd5b610e0c84848484611d0e565b50505050565b60606000610e46610e22846119c1565b604051602001610e329190612e85565b604051602081830303815290604052611b6e565b9050600d8054905081610e59919061360f565b9050600d8181548110610e95577f4e487b7100000000000000000000000000000000000000000000000000000000600052603260045260246000fd5b906000526020600020018054610eaa90613563565b80601f0160208091040260200160405190810160405280929190818152602001828054610ed690613563565b8015610f235780601f10610ef857610100808354040283529160200191610f23565b820191906000526020600020905b815481529060010190602001808311610f0657829003601f168201915b5050505050915050919050565b6060610f3b8261154f565b610f7a576040517f08c379a0000000000000000000000000000000000000000000000000000000008152600401610f719061322f565b60405180910390fd5b6000600660008481526020019081526020016000208054610f9a90613563565b80601f0160208091040260200160405190810160405280929190818152602001828054610fc690613563565b80156110135780601f10610fe857610100808354040283529160200191611013565b820191906000526020600020905b815481529060010190602001808311610ff657829003601f168201915b505050505090506000611024611d6a565b905060008151141561103a57819250505061107d565b60008251111561106f578082604051602001611057929190612de7565b6040516020818303038152906040529250505061107d565b61107884611d81565b925050505b919050565b6014600754106110c7576040517f08c379a00000000000000000000000000000000000000000000000000000000081526004016110be906130af565b60405180910390fd5b60006110d36008611e28565b905060006110e0826107db565b905060006110ed83610c92565b905060006110fa84610e12565b9050600083838360405160200161111393929190612e0b565b6040516020818303038152906040529050600061112f86610962565b90506000600982600a8560405160200161114c9493929190612e3c565b604051602081830303815290604052905060006111918461116c84611e36565b60405160200161117d929190612ec9565b604051602081830303815290604052611e36565b90506000816040516020016111a69190612f30565b60405160208183030381529060405290506111f56040518060400160405280601581526020017f0a2d2d2d2d2d2d2d2d2d2d2d2d2d2d2d2d2d2d2d2d00000000000000000000008152506113b0565b6111fe816113b0565b61123c6040518060400160405280601581526020017f2d2d2d2d2d2d2d2d2d2d2d2d2d2d2d2d2d2d2d2d0a00000000000000000000008152506113b0565b611246338a611ff4565b6112508982612012565b61125a6008612086565b61127d604051806060016040528060258152602001613df4602591398a3361209c565b7febb98688741ffa4c7589bf325de30cf7becb63de567842e1ccdb6cb949fdc82c338a6040516112ae929190612fdb565b60405180910390a16001600760008282546112c99190613398565b925050819055506113116040518060400160405280601781526020017f746f74616c4e4654734d696e746564536f4661722025640000000000000000008152506007546114b3565b505050505050505050565b6000600560008473ffffffffffffffffffffffffffffffffffffffff1673ffffffffffffffffffffffffffffffffffffffff16815260200190815260200160002060008373ffffffffffffffffffffffffffffffffffffffff1673ffffffffffffffffffffffffffffffffffffffff16815260200190815260200160002060009054906101000a900460ff16905092915050565b611446816040516024016113c4919061301f565b6040516020818303038152906040527f41304fac000000000000000000000000000000000000000000000000000000007bffffffffffffffffffffffffffffffffffffffffffffffffffffffff19166020820180517bffffffffffffffffffffffffffffffffffffffffffffffffffffffff838183161783525050505061213b565b50565b60007f01ffc9a7000000000000000000000000000000000000000000000000000000007bffffffffffffffffffffffffffffffffffffffffffffffffffffffff1916827bffffffffffffffffffffffffffffffffffffffffffffffffffffffff1916149050919050565b61154b82826040516024016114c9929190613041565b6040516020818303038152906040527f9710a9d0000000000000000000000000000000000000000000000000000000007bffffffffffffffffffffffffffffffffffffffffffffffffffffffff19166020820180517bffffffffffffffffffffffffffffffffffffffffffffffffffffffff838183161783525050505061213b565b5050565b60008073ffffffffffffffffffffffffffffffffffffffff166002600084815260200190815260200160002060009054906101000a900473ffffffffffffffffffffffffffffffffffffffff1673ffffffffffffffffffffffffffffffffffffffff1614159050919050565b600033905090565b816004600083815260200190815260200160002060006101000a81548173ffffffffffffffffffffffffffffffffffffffff021916908373ffffffffffffffffffffffffffffffffffffffff160217905550808273ffffffffffffffffffffffffffffffffffffffff1661163683610a80565b73ffffffffffffffffffffffffffffffffffffffff167f8c5be1e5ebec7d5bd14f71427d1e84f3dd0314c0f7b2291e5b200ac8c7c3b92560405160405180910390a45050565b60006116878261154f565b6116c6576040517f08c379a00000000000000000000000000000000000000000000000000000000081526004016116bd9061316f565b60405180910390fd5b60006116d183610a80565b90508073ffffffffffffffffffffffffffffffffffffffff168473ffffffffffffffffffffffffffffffffffffffff1614806117135750611712818561131c565b5b8061175157508373ffffffffffffffffffffffffffffffffffffffff16611739846105de565b73ffffffffffffffffffffffffffffffffffffffff16145b91505092915050565b8273ffffffffffffffffffffffffffffffffffffffff1661177a82610a80565b73ffffffffffffffffffffffffffffffffffffffff16146117d0576040517f08c379a00000000000000000000000000000000000000000000000000000000081526004016117c7906130ef565b60405180910390fd5b600073ffffffffffffffffffffffffffffffffffffffff168273ffffffffffffffffffffffffffffffffffffffff161415611840576040517f08c379a00000000000000000000000000000000000000000000000000000000081526004016118379061312f565b60405180910390fd5b61184b838383612164565b6118566000826115c3565b6001600360008573ffffffffffffffffffffffffffffffffffffffff1673ffffffffffffffffffffffffffffffffffffffff16815260200190815260200160002060008282546118a69190613479565b925050819055506001600360008473ffffffffffffffffffffffffffffffffffffffff1673ffffffffffffffffffffffffffffffffffffffff16815260200190815260200160002060008282546118fd9190613398565b92505081905550816002600083815260200190815260200160002060006101000a81548173ffffffffffffffffffffffffffffffffffffffff021916908373ffffffffffffffffffffffffffffffffffffffff160217905550808273ffffffffffffffffffffffffffffffffffffffff168473ffffffffffffffffffffffffffffffffffffffff167fddf252ad1be2c89b69c2b068fc378daa952ba7f163c4a11628f55a4df523b3ef60405160405180910390a46119bc838383612169565b505050565b60606000821415611a09576040518060400160405280600181526020017f30000000000000000000000000000000000000000000000000000000000000008152509050611b69565b600082905060005b60008214611a3b578080611a24906135c6565b915050600a82611a3491906133ee565b9150611a11565b60008167ffffffffffffffff811115611a7d577f4e487b7100000000000000000000000000000000000000000000000000000000600052604160045260246000fd5b6040519080825280601f01601f191660200182016040528015611aaf5781602001600182028036833780820191505090505b5090505b60008514611b6257600182611ac89190613479565b9150600a85611ad7919061360f565b6030611ae39190613398565b60f81b818381518110611b1f577f4e487b7100000000000000000000000000000000000000000000000000000000600052603260045260246000fd5b60200101907effffffffffffffffffffffffffffffffffffffffffffffffffffffffffffff1916908160001a905350600a85611b5b91906133ee565b9450611ab3565b8093505050505b919050565b600081604051602001611b819190612dd0565b6040516020818303038152906040528051906020012060001c9050919050565b8173ffffffffffffffffffffffffffffffffffffffff168373ffffffffffffffffffffffffffffffffffffffff161415611c10576040517f08c379a0000000000000000000000000000000000000000000000000000000008152600401611c079061314f565b60405180910390fd5b80600560008573ffffffffffffffffffffffffffffffffffffffff1673ffffffffffffffffffffffffffffffffffffffff16815260200190815260200160002060008473ffffffffffffffffffffffffffffffffffffffff1673ffffffffffffffffffffffffffffffffffffffff16815260200190815260200160002060006101000a81548160ff0219169083151502179055508173ffffffffffffffffffffffffffffffffffffffff168373ffffffffffffffffffffffffffffffffffffffff167f17307eab39ab6107e8899845ad3d59bd9653f200f220920489ca2b5937696c3183604051611d019190613004565b60405180910390a3505050565b611d1984848461175a565b611d258484848461216e565b611d64576040517f08c379a0000000000000000000000000000000000000000000000000000000008152600401611d5b906130cf565b60405180910390fd5b50505050565b606060405180602001604052806000815250905090565b6060611d8c8261154f565b611dcb576040517f08c379a0000000000000000000000000000000000000000000000000000000008152600401611dc29061326f565b60405180910390fd5b6000611dd5611d6a565b90506000815111611df55760405180602001604052806000815250611e20565b80611dff846119c1565b604051602001611e10929190612de7565b6040516020818303038152906040525b915050919050565b600081600001549050919050565b60606000825190506000811415611e5f5760405180602001604052806000815250915050611fef565b60006003600283611e709190613398565b611e7a91906133ee565b6004611e86919061341f565b90506000602082611e979190613398565b67ffffffffffffffff811115611ed6577f4e487b7100000000000000000000000000000000000000000000000000000000600052604160045260246000fd5b6040519080825280601f01601f191660200182016040528015611f085781602001600182028036833780820191505090505b5090506000604051806060016040528060408152602001613e19604091399050600181016020830160005b86811015611fac5760038101905062ffffff818a015116603f8160121c168401518060081b905060ff603f83600c1c1686015116810190508060081b905060ff603f8360061c1686015116810190508060081b905060ff603f831686015116810190508060e01b90508084526004840193505050611f33565b506003860660018114611fc65760028114611fd657611fe1565b613d3d60f01b6002830352611fe1565b603d60f81b60018303525b508484525050819450505050505b919050565b61200e828260405180602001604052806000815250612305565b5050565b61201b8261154f565b61205a576040517f08c379a0000000000000000000000000000000000000000000000000000000008152600401612051906131ef565b60405180910390fd5b8060066000848152602001908152602001600020908051906020019061208192919061255d565b505050565b6001816000016000828254019250508190555050565b6121368383836040516024016120b493929190613071565b6040516020818303038152906040527fe3849f79000000000000000000000000000000000000000000000000000000007bffffffffffffffffffffffffffffffffffffffffffffffffffffffff19166020820180517bffffffffffffffffffffffffffffffffffffffffffffffffffffffff838183161783525050505061213b565b505050565b60008151905060006a636f6e736f6c652e6c6f679050602083016000808483855afa5050505050565b505050565b505050565b600061218f8473ffffffffffffffffffffffffffffffffffffffff16612360565b156122f8578373ffffffffffffffffffffffffffffffffffffffff1663150b7a026121b86115bb565b8786866040518563ffffffff1660e01b81526004016121da9493929190612f8f565b602060405180830381600087803b1580156121f457600080fd5b505af192505050801561222557506040513d601f19601f8201168201806040525081019061222291906128a1565b60015b6122a8573d8060008114612255576040519150601f19603f3d011682016040523d82523d6000602084013e61225a565b606091505b506000815114156122a0576040517f08c379a0000000000000000000000000000000000000000000000000000000008152600401612297906130cf565b60405180910390fd5b805181602001fd5b63150b7a0260e01b7bffffffffffffffffffffffffffffffffffffffffffffffffffffffff1916817bffffffffffffffffffffffffffffffffffffffffffffffffffffffff1916149150506122fd565b600190505b949350505050565b61230f8383612383565b61231c600084848461216e565b61235b576040517f08c379a0000000000000000000000000000000000000000000000000000000008152600401612352906130cf565b60405180910390fd5b505050565b6000808273ffffffffffffffffffffffffffffffffffffffff163b119050919050565b600073ffffffffffffffffffffffffffffffffffffffff168273ffffffffffffffffffffffffffffffffffffffff1614156123f3576040517f08c379a00000000000000000000000000000000000000000000000000000000081526004016123ea9061320f565b60405180910390fd5b6123fc8161154f565b1561243c576040517f08c379a00000000000000000000000000000000000000000000000000000000081526004016124339061310f565b60405180910390fd5b61244860008383612164565b6001600360008473ffffffffffffffffffffffffffffffffffffffff1673ffffffffffffffffffffffffffffffffffffffff16815260200190815260200160002060008282546124989190613398565b92505081905550816002600083815260200190815260200160002060006101000a81548173ffffffffffffffffffffffffffffffffffffffff021916908373ffffffffffffffffffffffffffffffffffffffff160217905550808273ffffffffffffffffffffffffffffffffffffffff16600073ffffffffffffffffffffffffffffffffffffffff167fddf252ad1be2c89b69c2b068fc378daa952ba7f163c4a11628f55a4df523b3ef60405160405180910390a461255960008383612169565b5050565b82805461256990613563565b90600052602060002090601f01602090048101928261258b57600085556125d2565b82601f106125a457805160ff19168380011785556125d2565b828001600101855582156125d2579182015b828111156125d15782518255916020019190600101906125b6565b5b5090506125df91906125e3565b5090565b5b808211156125fc5760008160009055506001016125e4565b5090565b600061261361260e8461330f565b6132ea565b90508281526020810184848401111561262b57600080fd5b612636848285613521565b509392505050565b60008135905061264d81613d97565b92915050565b60008135905061266281613dae565b92915050565b60008135905061267781613dc5565b92915050565b60008151905061268c81613dc5565b92915050565b600082601f8301126126a357600080fd5b81356126b3848260208601612600565b91505092915050565b6000813590506126cb81613ddc565b92915050565b6000602082840312156126e357600080fd5b60006126f18482850161263e565b91505092915050565b6000806040838503121561270d57600080fd5b600061271b8582860161263e565b925050602061272c8582860161263e565b9150509250929050565b60008060006060848603121561274b57600080fd5b60006127598682870161263e565b935050602061276a8682870161263e565b925050604061277b868287016126bc565b9150509250925092565b6000806000806080858703121561279b57600080fd5b60006127a98782880161263e565b94505060206127ba8782880161263e565b93505060406127cb878288016126bc565b925050606085013567ffffffffffffffff8111156127e857600080fd5b6127f487828801612692565b91505092959194509250565b6000806040838503121561281357600080fd5b60006128218582860161263e565b925050602061283285828601612653565b9150509250929050565b6000806040838503121561284f57600080fd5b600061285d8582860161263e565b925050602061286e858286016126bc565b9150509250929050565b60006020828403121561288a57600080fd5b600061289884828501612668565b91505092915050565b6000602082840312156128b357600080fd5b60006128c18482850161267d565b91505092915050565b6000602082840312156128dc57600080fd5b60006128ea848285016126bc565b91505092915050565b6128fc816134ad565b82525050565b61290b816134bf565b82525050565b600061291c82613355565b612926818561336b565b9350612936818560208601613530565b61293f816136fc565b840191505092915050565b600061295582613360565b61295f818561337c565b935061296f818560208601613530565b612978816136fc565b840191505092915050565b600061298e82613360565b612998818561338d565b93506129a8818560208601613530565b80840191505092915050565b600081546129c181613563565b6129cb818661338d565b945060018216600081146129e657600181146129f757612a2a565b60ff19831686528186019350612a2a565b612a0085613340565b60005b83811015612a2257815481890152600182019150602081019050612a03565b838801955050505b50505092915050565b6000612a4060198361337c565b9150612a4b8261370d565b602082019050919050565b6000612a6360328361337c565b9150612a6e82613736565b604082019050919050565b6000612a8660258361337c565b9150612a9182613785565b604082019050919050565b6000612aa9601c8361337c565b9150612ab4826137d4565b602082019050919050565b6000612acc600a8361338d565b9150612ad7826137fd565b600a82019050919050565b6000612aef60248361337c565b9150612afa82613826565b604082019050919050565b6000612b1260198361337c565b9150612b1d82613875565b602082019050919050565b6000612b3560638361338d565b9150612b408261389e565b606382019050919050565b6000612b58600b8361338d565b9150612b6382613939565b600b82019050919050565b6000612b7b602c8361337c565b9150612b8682613962565b604082019050919050565b6000612b9e600d8361338d565b9150612ba9826139b1565b600d82019050919050565b6000612bc160388361337c565b9150612bcc826139da565b604082019050919050565b6000612be4602a8361337c565b9150612bef82613a29565b604082019050919050565b6000612c0760298361337c565b9150612c1282613a78565b604082019050919050565b6000612c2a602e8361337c565b9150612c3582613ac7565b604082019050919050565b6000612c4d60028361338d565b9150612c5882613b16565b600282019050919050565b6000612c7060208361337c565b9150612c7b82613b3f565b602082019050919050565b6000612c9360318361337c565b9150612c9e82613b68565b604082019050919050565b6000612cb6602c8361337c565b9150612cc182613bb7565b604082019050919050565b6000612cd9602f8361337c565b9150612ce482613c06565b604082019050919050565b6000612cfc600a8361338d565b9150612d0782613c55565b600a82019050919050565b6000612d1f60218361337c565b9150612d2a82613c7e565b604082019050919050565b6000612d42600a8361338d565b9150612d4d82613ccd565b600a82019050919050565b6000612d65601d8361338d565b9150612d7082613cf6565b601d82019050919050565b6000612d8860318361337c565b9150612d9382613d1f565b604082019050919050565b6000612dab60058361338d565b9150612db682613d6e565b600582019050919050565b612dca81613517565b82525050565b6000612ddc8284612983565b915081905092915050565b6000612df38285612983565b9150612dff8284612983565b91508190509392505050565b6000612e178286612983565b9150612e238285612983565b9150612e2f8284612983565b9150819050949350505050565b6000612e4882876129b4565b9150612e548286612983565b9150612e6082856129b4565b9150612e6c8284612983565b9150612e7782612b91565b915081905095945050505050565b6000612e9082612abf565b9150612e9c8284612983565b915081905092915050565b6000612eb282612b4b565b9150612ebe8284612983565b915081905092915050565b6000612ed482612cef565b9150612ee08285612983565b9150612eeb82612b28565b9150612ef78284612983565b9150612f0282612c40565b91508190509392505050565b6000612f1982612d35565b9150612f258284612983565b915081905092915050565b6000612f3b82612d58565b9150612f478284612983565b915081905092915050565b6000612f5d82612d9e565b9150612f698284612983565b915081905092915050565b6000602082019050612f8960008301846128f3565b92915050565b6000608082019050612fa460008301876128f3565b612fb160208301866128f3565b612fbe6040830185612dc1565b8181036060830152612fd08184612911565b905095945050505050565b6000604082019050612ff060008301856128f3565b612ffd6020830184612dc1565b9392505050565b60006020820190506130196000830184612902565b92915050565b60006020820190508181036000830152613039818461294a565b905092915050565b6000604082019050818103600083015261305b818561294a565b905061306a6020830184612dc1565b9392505050565b6000606082019050818103600083015261308b818661294a565b905061309a6020830185612dc1565b6130a760408301846128f3565b949350505050565b600060208201905081810360008301526130c881612a33565b9050919050565b600060208201905081810360008301526130e881612a56565b9050919050565b6000602082019050818103600083015261310881612a79565b9050919050565b6000602082019050818103600083015261312881612a9c565b9050919050565b6000602082019050818103600083015261314881612ae2565b9050919050565b6000602082019050818103600083015261316881612b05565b9050919050565b6000602082019050818103600083015261318881612b6e565b9050919050565b600060208201905081810360008301526131a881612bb4565b9050919050565b600060208201905081810360008301526131c881612bd7565b9050919050565b600060208201905081810360008301526131e881612bfa565b9050919050565b6000602082019050818103600083015261320881612c1d565b9050919050565b6000602082019050818103600083015261322881612c63565b9050919050565b6000602082019050818103600083015261324881612c86565b9050919050565b6000602082019050818103600083015261326881612ca9565b9050919050565b6000602082019050818103600083015261328881612ccc565b9050919050565b600060208201905081810360008301526132a881612d12565b9050919050565b600060208201905081810360008301526132c881612d7b565b9050919050565b60006020820190506132e46000830184612dc1565b92915050565b60006132f4613305565b90506133008282613595565b919050565b6000604051905090565b600067ffffffffffffffff82111561332a576133296136cd565b5b613333826136fc565b9050602081019050919050565b60008190508160005260206000209050919050565b600081519050919050565b600081519050919050565b600082825260208201905092915050565b600082825260208201905092915050565b600081905092915050565b60006133a382613517565b91506133ae83613517565b9250827fffffffffffffffffffffffffffffffffffffffffffffffffffffffffffffffff038211156133e3576133e2613640565b5b828201905092915050565b60006133f982613517565b915061340483613517565b9250826134145761341361366f565b5b828204905092915050565b600061342a82613517565b915061343583613517565b9250817fffffffffffffffffffffffffffffffffffffffffffffffffffffffffffffffff048311821515161561346e5761346d613640565b5b828202905092915050565b600061348482613517565b915061348f83613517565b9250828210156134a2576134a1613640565b5b828203905092915050565b60006134b8826134f7565b9050919050565b60008115159050919050565b60007fffffffff0000000000000000000000000000000000000000000000000000000082169050919050565b600073ffffffffffffffffffffffffffffffffffffffff82169050919050565b6000819050919050565b82818337600083830152505050565b60005b8381101561354e578082015181840152602081019050613533565b8381111561355d576000848401525b50505050565b6000600282049050600182168061357b57607f821691505b6020821081141561358f5761358e61369e565b5b50919050565b61359e826136fc565b810181811067ffffffffffffffff821117156135bd576135bc6136cd565b5b80604052505050565b60006135d182613517565b91507fffffffffffffffffffffffffffffffffffffffffffffffffffffffffffffffff82141561360457613603613640565b5b600182019050919050565b600061361a82613517565b915061362583613517565b9250826136355761363461366f565b5b828206905092915050565b7f4e487b7100000000000000000000000000000000000000000000000000000000600052601160045260246000fd5b7f4e487b7100000000000000000000000000000000000000000000000000000000600052601260045260246000fd5b7f4e487b7100000000000000000000000000000000000000000000000000000000600052602260045260246000fd5b7f4e487b7100000000000000000000000000000000000000000000000000000000600052604160045260246000fd5b6000601f19601f8301169050919050565b7f4d6178206e756d626572206f66204e465473206d696e74656400000000000000600082015250565b7f4552433732313a207472616e7366657220746f206e6f6e20455243373231526560008201527f63656976657220696d706c656d656e7465720000000000000000000000000000602082015250565b7f4552433732313a207472616e736665722066726f6d20696e636f72726563742060008201527f6f776e6572000000000000000000000000000000000000000000000000000000602082015250565b7f4552433732313a20746f6b656e20616c7265616479206d696e74656400000000600082015250565b7f54484952445f574f524400000000000000000000000000000000000000000000600082015250565b7f4552433732313a207472616e7366657220746f20746865207a65726f2061646460008201527f7265737300000000000000000000000000000000000000000000000000000000602082015250565b7f4552433732313a20617070726f766520746f2063616c6c657200000000000000600082015250565b7f222c20226465736372697074696f6e223a20224120686967686c79206163636c60008201527f61696d656420636f6c6c656374696f6e206f6620737175617265732e222c202260208201527f696d616765223a2022646174613a696d6167652f7376672b786d6c3b6261736560408201527f36342c0000000000000000000000000000000000000000000000000000000000606082015250565b7f5345434f4e445f574f5244000000000000000000000000000000000000000000600082015250565b7f4552433732313a206f70657261746f7220717565727920666f72206e6f6e657860008201527f697374656e7420746f6b656e0000000000000000000000000000000000000000602082015250565b7f3c2f746578743e3c2f7376673e00000000000000000000000000000000000000600082015250565b7f4552433732313a20617070726f76652063616c6c6572206973206e6f74206f7760008201527f6e6572206e6f7220617070726f76656420666f7220616c6c0000000000000000602082015250565b7f4552433732313a2062616c616e636520717565727920666f7220746865207a6560008201527f726f206164647265737300000000000000000000000000000000000000000000602082015250565b7f4552433732313a206f776e657220717565727920666f72206e6f6e657869737460008201527f656e7420746f6b656e0000000000000000000000000000000000000000000000602082015250565b7f45524337323155524953746f726167653a2055524920736574206f66206e6f6e60008201527f6578697374656e7420746f6b656e000000000000000000000000000000000000602082015250565b7f227d000000000000000000000000000000000000000000000000000000000000600082015250565b7f4552433732313a206d696e7420746f20746865207a65726f2061646472657373600082015250565b7f45524337323155524953746f726167653a2055524920717565727920666f722060008201527f6e6f6e6578697374656e7420746f6b656e000000000000000000000000000000602082015250565b7f4552433732313a20617070726f76656420717565727920666f72206e6f6e657860008201527f697374656e7420746f6b656e0000000000000000000000000000000000000000602082015250565b7f4552433732314d657461646174613a2055524920717565727920666f72206e6f60008201527f6e6578697374656e7420746f6b656e0000000000000000000000000000000000602082015250565b7f7b226e616d65223a202200000000000000000000000000000000000000000000600082015250565b7f4552433732313a20617070726f76616c20746f2063757272656e74206f776e6560008201527f7200000000000000000000000000000000000000000000000000000000000000602082015250565b7f46495253545f574f524400000000000000000000000000000000000000000000600082015250565b7f646174613a6170706c69636174696f6e2f6a736f6e3b6261736536342c000000600082015250565b7f4552433732313a207472616e736665722063616c6c6572206973206e6f74206f60008201527f776e6572206e6f7220617070726f766564000000000000000000000000000000602082015250565b7f434f4c4f52000000000000000000000000000000000000000000000000000000600082015250565b613da0816134ad565b8114613dab57600080fd5b50565b613db7816134bf565b8114613dc257600080fd5b50565b613dce816134cb565b8114613dd957600080fd5b50565b613de581613517565b8114613df057600080fd5b5056fe416e204e465420772f20494420257320686173206265656e206d696e74656420746f2025734142434445464748494a4b4c4d4e4f505152535455565758595a6162636465666768696a6b6c6d6e6f707172737475767778797a303132333435363738392b2fa2646970667358221220d1b29a83f2e7ab1671183c8e4761737c7650a69aca653b7fa49d73ba28f3da3a64736f6c634300080100333c73766720786d6c6e733d27687474703a2f2f7777772e77332e6f72672f323030302f73766727207072657365727665417370656374526174696f3d27784d696e594d696e206d656574272076696577426f783d273020302033353020333530273e3c7374796c653e2e62617365207b2066696c6c3a2077686974653b20666f6e742d66616d696c793a2073657269663b20666f6e742d73697a653a20323470783b207d3c2f7374796c653e3c726563742077696474683d273130302527206865696768743d2731303025272066696c6c3d27272f3e3c7465787420783d273530252720793d273530252720636c6173733d27626173652720646f6d696e616e742d626173656c696e653d276d6964646c652720746578742d616e63686f723d276d6964646c65273e",
  "linkReferences": {},
  "deployedLinkReferences": {}
}